:020000040800F2
:10000000008001209D710008091A0008171A0008D5
:100010001D1A0008231A0008291A00080000000011
:100020000000000000000000000000002F1A00087F
:100030003D1A0008000000004B1A0008591A000879
:10004000ED710008ED710008ED710008ED71000818
:10005000ED710008ED710008ED710008ED71000808
:10006000ED710008ED710008ED710008651A0008D7
:10007000ED710008ED710008ED710008ED710008E8
:10008000ED710008ED710008ED710008ED710008D8
:10009000ED710008ED710008ED710008ED710008C8
:1000A000ED710008ED710008ED710008ED710008B8
:1000B000791A0008ED710008ED710008ED71000873
:1000C000ED710008ED710008ED710008ED71000898
:1000D000ED710008ED710008ED710008ED71000888
:1000E000ED710008ED710008ED710008ED71000878
:1000F000ED710008ED710008ED710008ED71000868
:10010000ED710008ED710008ED710008ED71000857
:10011000ED710008ED710008ED710008ED71000847
:10012000ED710008ED710008ED710008ED71000837
:10013000ED710008ED710008ED710008ED71000827
:10014000ED710008ED710008ED710008ED71000817
:10015000ED710008ED710008ED710008ED71000807
:10016000ED710008ED710008ED710008ED710008F7
:10017000ED710008ED710008ED710008000000004D
:08018000ED710008ED710008AB
:1001880010B5054C237833B9044B13B10448AFF3C9
:1001980000800123237010BDB00000200000000083
:1001A8000476000808B5034B1BB103490348AFF3B5
:1001B800008008BD00000000B4000020047600089C
:1001C80081F0004102E000BF83F0004330B54FEA00
:1001D80041044FEA430594EA050F08BF90EA020F6D
:1001E8001FBF54EA000C55EA020C7FEA645C7FEA00
:1001F800655C00F0E2804FEA5454D4EB5555B8BF23
:100208006D420CDD2C4480EA020281EA030382EA93
:10021800000083EA010180EA020281EA0303362D25
:1002280088BF30BD11F0004F4FEA01314FF4801CF8
:100238004CEA113102D0404261EB410113F0004F0A
:100248004FEA03334CEA133302D0524263EB4303C1
:1002580094EA050F00F0A780A4F10104D5F1200E5F
:100268000DDB02FA0EFC22FA05F2801841F10001BA
:1002780003FA0EF2801843FA05F359410EE0A5F18E
:1002880020050EF1200E012A03FA0EFC28BF4CF0BF
:10029800020C43FA05F3C01851EBE37101F0004575
:1002A80007D54FF0000EDCF1000C7EEB00006EEB82
:1002B8000101B1F5801F1BD3B1F5001F0CD349080C
:1002C8005FEA30004FEA3C0C04F101044FEA445263
:1002D80012F5800F80F09A80BCF1004F08BF5FEAEA
:1002E800500C50F1000041EB045141EA050130BDCA
:1002F8005FEA4C0C404141EB0101013C28BFB1F5DC
:10030800801FE9D291F0000F04BF01460020B1FA26
:1003180081F308BF2033A3F10B03B3F120020CDAF9
:100328000C3208DD02F1140CC2F10C0201FA0CF0D7
:1003380021FA02F10CE002F11402D8BFC2F1200C3C
:1003480001FA02F120FA0CFCDCBF41EA0C019040F2
:10035800E41AA2BF01EB0451294330BD6FEA04043B
:100368001F3C1CDA0C340EDC04F11404C4F1200226
:1003780020FA04F001FA02F340EA030021FA04F338
:1003880045EA030130BDC4F10C04C4F1200220FA8F
:1003980002F001FA04F340EA0300294630BD21FACD
:1003A80004F0294630BD94F0000F83F4801306BF93
:1003B80081F480110134013D4EE77FEA645C18BF87
:1003C8007FEA655C29D094EA050F08BF90EA020F1E
:1003D80005D054EA000C04BF1946104630BD91EA16
:1003E800030F1EBF0021002030BD5FEA545C05D119
:1003F8004000494128BF41F0004130BD14F5800458
:100408003CBF01F5801130BD01F0004545F0FE41CB
:1004180041F470014FF0000030BD7FEA645C1ABF00
:10042800194610467FEA655C1CBF0B46024650EA37
:10043800013406BF52EA033591EA030F41F4002163
:1004480030BD00BF90F0000F04BF0021704730B5E9
:100458004FF4806404F132044FF000054FF00001BE
:1004680050E700BF90F0000F04BF0021704730B57F
:100478004FF4806404F1320410F0004548BF404254
:100488004FF000013EE700BF42004FEAE2014FEAA9
:1004980031014FEA02701FBF12F07F4393F07F4F84
:1004A80081F06051704732F07F4208BF704793F087
:1004B8007F4F04BF41F40021704730B54FF460749A
:1004C80001F0004521F000411CE700BF50EA01029D
:1004D80008BF704730B54FF000050AE050EA010246
:1004E80008BF704730B511F0004502D5404261EBB6
:1004F80041014FF4806404F132045FEA915C3FF4F7
:10050800D8AE4FF003025FEADC0C18BF03325FEA93
:10051800DC0C18BF033202EBDC02C2F1200300FA44
:1005280003FC20FA02F001FA03FE40EA0E0021FA69
:1005380002F11444BDE600BF70B54FF0FF0C4CF457
:10054800E06C1CEA11541DBF1CEA135594EA0C0F09
:1005580095EA0C0F00F0DEF82C4481EA030621EA44
:100568004C5123EA4C5350EA013518BF52EA03357F
:1005780041F4801143F4801338D0A0FB02CE4FF031
:100588000005E1FB02E506F00042E0FB03E54FF061
:100598000006E1FB03569CF0000F18BF4EF0010E59
:1005A800A4F1FF04B6F5007F64F5407404D25FEA55
:1005B8004E0E6D4146EB060642EAC62141EA555108
:1005C8004FEAC52040EA5E504FEACE2EB4F1FD0C4A
:1005D80088BFBCF5E06F1ED8BEF1004F08BF5FEAC8
:1005E800500E50F1000041EB045170BD06F000467A
:1005F80046EA010140EA020081EA0301B4EB5C0427
:10060800C2BFD4EB0C0541EA045170BD41F480111E
:100618004FF0000E013C00F3AB8014F1360FDEBF43
:10062800002001F0004170BDC4F10004203C35DA1F
:100638000C341BDC04F11404C4F1200500FA05F3A2
:1006480020FA04F001FA05F240EA020001F0004243
:1006580021F0004110EBD37021FA04F642EB0601B9
:100668005EEA430E08BF20EAD37070BDC4F10C04E3
:10067800C4F1200500FA04F320FA05F001FA04F2A7
:1006880040EA020001F0004110EBD37041F1000193
:100698005EEA430E08BF20EAD37070BDC4F120059E
:1006A80000FA05F24EEA020E20FA04F301FA05F206
:1006B80043EA020321FA04F001F0004121FA04F2AE
:1006C80020EA020000EBD3705EEA430E08BF20EA7E
:1006D800D37070BD94F0000F0FD101F000464000B8
:1006E80041EB010111F4801F08BF013CF7D041EA3A
:1006F800060195F0000F18BF704703F0004652003E
:1007080043EB030313F4801F08BF013DF7D043EA0E
:100718000603704794EA0C0F0CEA135518BF95EAC4
:100728000C0F0CD050EA410618BF52EA4306D1D14B
:1007380081EA030101F000414FF0000070BD50EA6A
:10074800410606BF1046194652EA430619D094EAF4
:100758000C0F02D150EA013613D195EA0C0F05D1DE
:1007680052EA03361CBF104619460AD181EA030132
:1007780001F0004141F0FE4141F470014FF00000EA
:1007880070BD41F0FE4141F4780170BD70B54FF085
:10079800FF0C4CF4E06C1CEA11541DBF1CEA135505
:1007A80094EA0C0F95EA0C0F00F0A7F8A4EB0504E7
:1007B80081EA030E52EA03354FEA013100F08880DE
:1007C8004FEA03334FF0805545EA131343EA1263A7
:1007D8004FEA022245EA111545EA10654FEA00265C
:1007E8000EF000419D4208BF964244F1FD0404F515
:1007F800407402D25B084FEA3202B61A65EB030571
:100808005B084FEA32024FF480104FF4002CB6EB2D
:10081800020E75EB030E22BFB61A754640EA0C00AD
:100828005B084FEA3202B6EB020E75EB030E22BFED
:10083800B61A754640EA5C005B084FEA3202B6EB2E
:10084800020E75EB030E22BFB61A754640EA9C00ED
:100858005B084FEA3202B6EB020E75EB030E22BFBD
:10086800B61A754640EADC0055EA060E18D04FEA7B
:10087800051545EA16754FEA06164FEAC30343EA1B
:1008880052734FEAC2025FEA1C1CC0D111F4801FE8
:100898000BD141EA00014FF000004FF0004CB6E7E1
:1008A80011F4801F04BF01430020B4F1FD0C88BF80
:1008B800BCF5E06F3FF6AFAEB5EB030C04BFB6EB8B
:1008C800020C5FEA500C50F1000041EB045170BD7E
:1008D8000EF0004E4EEA113114EB5C04C2BFD4EBAB
:1008E8000C0541EA045170BD41F480114FF0000E2F
:1008F800013C90E645EA060E8DE60CEA135594EAAB
:100908000C0F08BF95EA0C0F3FF43BAF94EA0C0FAD
:100918000AD150EA01347FF434AF95EA0C0F7FF422
:1009280025AF104619462CE795EA0C0F06D152EA76
:1009380003353FF4FDAE1046194622E750EA41065A
:1009480018BF52EA43067FF4C5AE50EA41047FF46B
:100958000DAF52EA43057FF4EBAE12E74FF0FF3CD0
:1009680006E000BF4FF0010C02E000BF4FF0010CA1
:100978004DF804CD4FEA410C7FEA6C5C4FEA430C1A
:1009880018BF7FEA6C5C1BD001B050EA410C0CBF69
:1009980052EA430C91EA030F02BF90EA020F0020CB
:1009A800704710F1000F91EA030F58BF994208BF32
:1009B80090422CBFD8176FEAE37040F001007047EF
:1009C8004FEA410C7FEA6C5C02D150EA013C07D146
:1009D8004FEA430C7FEA6C5CD6D152EA033CD3D091
:1009E8005DF8040B704700BF8446104662468C468B
:1009F8001946634600E000BF01B5FFF7B7FF0028BE
:100A080048BF10F1000F01BD4DF808EDFFF7F4FFE6
:100A18000CBF012000205DF808FB00BF4DF808ED71
:100A2800FFF7EAFF34BF012000205DF808FB00BF94
:100A38004DF808EDFFF7E0FF94BF012000205DF8B6
:100A480008FB00BF4DF808EDFFF7CEFF94BF01206B
:100A580000205DF808FB00BF4DF808EDFFF7C4FF64
:100A680034BF012000205DF808FB00BF4FEA4102B7
:100A780012F5001215D211D56FF47873B3EB6252E8
:100A880012D94FEAC12343F0004343EA505311F00F
:100A9800004F23FA02F018BF404270474FF00000A1
:100AA800704750EA013005D111F0004008BF6FF0DF
:100AB800004070474FF00000704700BF4A0011D255
:100AC80012F5001211D20DD56FF47873B3EB6252A0
:100AD8000ED44FEAC12343F0004343EA505323FAAC
:100AE80002F070474FF00000704750EA013002D121
:100AF8004FF0FF3070474FF00000704753B94AB9C4
:100B0800002908BF00281CBF4FF0FF314FF0FF300D
:100B180000F06EB9ADF1080C6DE904CE00F006F8EE
:100B2800DDF804E0DDE9022304B070472DE9F04761
:100B3800089D04468C46002B40F083808A42174665
:100B480047D9B2FA82F242B1C2F1200024FA00F089
:100B58009140974040EA010C94404FEA1748230C13
:100B6800BCFBF8F61FFA87FE08FB16C143EA0143EF
:100B780006FB0EF1994209D9FB1806F1FF3080F007
:100B88001981994240F21681023E3B445B1AA4B295
:100B9800B3FBF8F008FB103344EA034400FB0EFEF5
:100BA800A64509D93C1900F1FF3380F00581A64517
:100BB80040F2028102383C4440EA0640A4EB0E04AD
:100BC80000261DB1D4400023C5E900433146BDE8E5
:100BD800F08702B9FFDEB2FA82F2002A50D1CB1BAD
:100BE8004FEA174E1FFA87F80126B3FBFEFC210CCB
:100BF8000EFB1C3341EA034108FB0CF38B4207D977
:100C080079180CF1FF3002D28B4200F2E980844659
:100C1800C91AA3B2B1FBFEF00EFB101143EA01445E
:100C280008FB00F8A04507D93C1900F1FF3302D2B0
:100C3800A04500F2D9801846A4EB080440EA0C400D
:100C4800BFE78B4209D9002D00F0B1800026C5E925
:100C5800000130463146BDE8F087B3FA83F6002E2E
:100C68004AD18B4202D3824200F2B880841A61EBE7
:100C7800030101208C46002DA8D0C5E9004CA5E74A
:100C8800C2F1200320FA03F6974001FA02F04FEA76
:100C9800174ED9403043030CB1FBFEF61FFA87F814
:100CA8000EFB161143EA014306FB08F1994204FAC8
:100CB80002F409D9FB1806F1FF3C80F08D809942B7
:100CC80040F28A80023E3B445B1A81B2B3FBFEF0DD
:100CD8000EFB103341EA034100FB08F38B4207D9AE
:100CE800791800F1FF3C73D28B4271D9023839442C
:100CF800CB1A40EA064678E7C6F1200C03FA06F458
:100D080022FA0CF31C4320FA0CF701FA06F34FEA17
:100D1800144E21FA0CF11F433B0CB1FBFEF91FFAEC
:100D280084F80EFB191143EA014109FB08FA8A45C8
:100D380002FA06F200FA06F308D9611809F1FF3041
:100D480048D28A4546D9A9F102092144A1EB0A01F2
:100D5800BFB2B1FBFEF00EFB101147EA014700FBE2
:100D680008F8B84507D9E71900F1FF312ED2B84580
:100D78002CD90238274440EA0940A7EB0807A0FB12
:100D880002894F45C64649461AD317D05DB1B3EB21
:100D98000E0267EB010707FA0CFCF2404CEA02026C
:100DA800F740C5E9002700263146BDE8F0872E4602
:100DB80028460BE70646E9E61846FDE64345E5D230
:100DC800B8EB020E69EB04010138DFE70846D2E709
:100DD80060468DE78146B9E7664675E730464AE7DB
:100DE800ACF1020C394413E702383C4424E700BF55
:100DF800704700BF80B58AB000AF07F11C0300221E
:100E08001A605A609A603B1D00221A605A609A6004
:100E1800DA601A615A613E4B3E4A1A603C4B4FF405
:100E280000125A603A4B00229A60394B0022DA606D
:100E3800374B01221A61364B04225A61344B002287
:100E48001A76334B01225A76314B0322DA61304B42
:100E5800002283F820202E4B00229A622C4B00227D
:100E6800DA622B4B012283F83020294B4FF4805251
:100E78005A63274B002283F83820254801F0F8FAF6
:100E88000346002B01D000F08FFD0023FB6107F122
:100E98001C0319461E4802F013FA0346002B01D022
:100EA80000F082FD1C4B7B600623BB600423FB60C3
:100EB8007F233B6104237B610023BB613B1D1946F3
:100EC800134801F0FBFC0346002B01D000F06CFD39
:100ED800124B7B600C23BB603B1D19460C4801F08C
:100EE800EDFC0346002B01D000F05EFD0C4B7B604F
:100EF8001223BB603B1D1946054801F0DFFC034681
:100F0800002B01D000F050FD00BF2837BD4680BD42
:100F18004C01002000000450020030040400600866
:100F28000080F03E80B58AB000AF786007F1140306
:100F380000221A605A609A60DA601A617B681B683E
:100F4800374A934267D1374BDB6C364A43F4005338
:100F5800D364344BDB6C03F400533B613B69314B86
:100F6800DB6C304A43F00403D3642E4BDB6C03F094
:100F78000403FB60FB682B4BDB6C2A4A43F002033B
:100F8800D364284BDB6C03F00203BB60BB6803230C
:100F98007B610B23BB610023FB6107F11403194636
:100FA800214802F043FD01237B610B23BB61002331
:100FB800FB6107F1140319461C4802F037FD1C4B6E
:100FC8001C4A1A601A4B00225A60194B00229A6078
:100FD800174B0022DA60164B80221A61144B4FF42B
:100FE80080725A61124B4FF480629A61104B202232
:100FF800DA610F4B4FF480521A620D4802F01EFB63
:101008000346002B01D000F0CFFC7B68084ADA6465
:10101800074A7B68936200BF2837BD4680BD00BF82
:101028000000045000100240000800480004004876
:10103800B00100200800024080B582B000AF0C4B20
:101048009B6C0B4A43F001039364094B9B6C03F0C0
:1010580001037B607B68002200210B2002F0B7FAB5
:101068000B2002F0D0FA00BF0837BD4680BD00BF94
:101078000010024080B58AB000AF07F114030022C7
:101088001A605A609A60DA601A61364BDB6C354A2E
:1010980043F00403D364334BDB6C03F004033B617C
:1010A8003B69304BDB6C2F4A43F08003D3642D4BF4
:1010B800DB6C03F08003FB60FB682A4BDB6C294A7E
:1010C80043F00103D364274BDB6C03F00103BB60DF
:1010D800BB68244BDB6C234A43F00203D364214BE7
:1010E800DB6C03F002037B607B6800224FF4C15184
:1010F8004FF0904002F044FE00224FF606011A48D5
:1011080002F03EFE4FF400537B61184BBB61002395
:10111800FB6107F114031946154802F087FC4FF4E8
:10112800C1537B610123BB610023FB6103233B6245
:1011380007F1140319464FF0904002F077FC4FF680
:1011480006037B610123BB610023FB6103233B6230
:1011580007F114031946044802F068FC00BF283759
:10116800BD4680BD00100240000400480000211068
:101178000008004880B584B000AF00F003FF00F01D
:101188009DF8FFF777FFFFF757FF00F005FD00F028
:10119800C9FD00F085FEFFF72DFE434804F06CF909
:1011A8000021424804F03AFA0421404804F036FA93
:1011B80008213E4804F032FA3C4B1B6800225A636F
:1011C8003A4B1B6800229A63384B1B680022DA638B
:1011D80003223749374801F09FFAC82000F04EFF34
:1011E8000023FB6028E00023BB601FE03249FA6857
:1011F80013469B0013445B00BA68134442F206721C
:1012080021F813200A2000F039FF2B49FA68134609
:101218009B0013445B00BA681344002221F8132092
:101228000A2000F02BFFBB680133BB60BB68092BA9
:10123800DCDDFB680133FB60FB68022BD3DD002398
:10124800FB710023BB714FF000033B60184B1888FB
:10125800174B5988BB1DFA1D00F001F9144B9B88E8
:101268003A461146184600F02FF9FB79BA79D7EDBE
:10127800007AB0EE670A1146184600F041F90220DC
:1012880000F0FCFE00F05AFB084B1B6842F20672A5
:101298005A63064B1B6800229A63044B1B6842F290
:1012A8000672DA63CBE700BF44020020F801002091
:1012B800440100204C0100200801002080B5B8B08E
:1012C80000AF07F19C0344220021184605F0B6FF41
:1012D80007F1880300221A605A609A60DA601A617E
:1012E8003B4688220021184605F0A8FF0223C7F8CC
:1012F8009C304FF48073C7F8A8301023C7F8AC307F
:101308000223C7F8C4300223C7F8C8300123C7F83E
:10131800CC300A23C7F8D0300723C7F8D4300223CB
:10132800C7F8D8300223C7F8DC3007F19C03184609
:1013380002F0A2FD0346002B01D000F035FB0F237D
:10134800C7F888300323C7F88C300023C7F89030DB
:101358000023C7F894300023C7F8983007F18803B2
:101368000421184603F06EF90346002B01D000F063
:101378001BFB44F202033B600023FB634FF08053E6
:10138800BB6702237B600123BB600823FB60072344
:101398003B6102237B610223BB614FF08073FB61D9
:1013A8003B46184603F054FB0346002B01D000F0DF
:1013B800FBFA4FF4007002F009FD0346002B01D040
:1013C80000F0F2FA00BFE037BD4680BD80B485B0BA
:1013D80000AFF860B9607A603B60FA68BB68D31AFE
:1013E800B9693A688A1A02FB03F27968BB68CB1AB2
:1013F80092FBF3F23B68134418461437BD465DF878
:10140800047B704780B487B000AF78613961FA60B7
:1014180087ED020AC7ED010A7A693B69D31A07EE1C
:10142800903AB8EEE77AD7ED016AD7ED027A76EE10
:10143800E77A67EE276AFA683B69D31A07EE903AAB
:10144800F8EEE77A86EEA77AD7ED027A77EE277A72
:10145800B0EE670A1C37BD465DF8047B704780B55F
:1014680086B002AFBA607B600346FB810B46BB8146
:10147800F8890A230093002340F6FF720021FFF742
:10148800A5FF0346DAB2BB681A70BB8940F68B2207
:10149800934203D97B6802221A7010E0BB8940F698
:1014A8008B22934208D8BB8940F24552934203D914
:1014B8007B6801221A7002E07B6800221A7000BF64
:1014C8001037BD4680BD000080B582B000AF03462E
:1014D8003960FB80FB88F1EE0C0A9FED080A40F6A4
:1014E800FF7200211846FFF78DFFF0EE407A3B6847
:1014F800C3ED007A00BF0837BD4680BDCDCCCC3DDA
:10150800B0B590B000AF03460A4687ED000AFB71FC
:101518001346BB7142F206737B82FB797B74BB79FD
:101528003B740023FB81002387F83F30002387F8B2
:101538003E307B7CBB6341E07B8A1846FEF792FF16
:1015480004460D4697F83F305B4207EE903AB8EEF6
:10155800E77AD7ED007A67EE277A17EE900AFEF75A
:1015680093FF02460B4643EC102B05F071FE53EC3B
:10157800102B20462946FEF7DFFF02460B46104691
:101588001946FFF79BFA0346FB81C049BB6BFA89F2
:1015980021F81320BD49BB6B0A33FA8921F81320BF
:1015A800BA49BB6B1433FA8921F8132097F83F30F6
:1015B800013387F83F30BB6B013BBB63BB6B002B30
:1015C800BADA002387F83F307B7C87F8373046E06B
:1015D8007B8A1846FEF746FF04460D4697F83F30CB
:1015E8005B4207EE903AB8EEE77AD7ED007A67EEFD
:1015F800277A17EE900AFEF747FF02460B4643ECA0
:10160800102B05F025FE53EC102B20462946FEF73B
:1016180093FF02460B4610461946FFF74FFA03465A
:10162800FB8197F837309949FA8921F8132097F800
:10163800373096490A33FA8921F8132097F837305A
:1016480092491433FA8921F8132097F83F3001336F
:1016580087F83F3097F83730013387F8373097F8F5
:101668003730092BB4D93B7C022B00F00981022BBF
:1016780000F35D81002B02D0012B55D057E13B7C54
:101688003B634DE00023FB623FE080493A6B134621
:101698009B0013445B00FA6A134431F81330184670
:1016A800FEF7E0FE04460D4697F83E305B4207EE33
:1016B800903AB8EEE77AD7ED007A67EE277A17EE18
:1016C800900AFEF7E1FE02460B4643EC102B05F0AC
:1016D800BFFD53EC102B20462946FEF72DFF02468E
:1016E8000B4610461946FFF7E9F9034698B26749D1
:1016F8003A6B13469B0013445B00FA6A1344024694
:1017080021F81320FB6A0133FB62FB6A092BBCDD5D
:1017180097F83E30013387F83E303B6B01333B632B
:101728003B6B022BAEDD02E13B7CBB624DE000234C
:101738007B623FE05549BA6A13469B0013445B003D
:101748007A6A134431F813301846FEF78BFE0446C4
:101758000D4697F83E305B4207EE903AB8EEE77ACE
:10176800D7ED007A67EE277A17EE900AFEF78CFE1F
:1017780002460B4643EC102B05F06AFD53EC102B88
:1017880020462946FEF7D8FE02460B461046194663
:10179800FFF794F9034698B23C49BA6A13469B008E
:1017A80013445B007A6A1344024621F813207B6ACB
:1017B80001337B627B6A092BBCDD97F83E3001332D
:1017C80087F83E30BB6A013BBB62BB6A002BAEDACE
:1017D800002387F83E303B7C3B624DE00023FB61F1
:1017E8003FE02A493A6A13469B0013445B00FA69B2
:1017F800134431F813301846FEF734FE04460D46FC
:1018080097F83E305B4207EE903AB8EEE77AD7EDAC
:10181800007A67EE277A17EE900AFEF735FE024641
:101828000B4643EC102B05F013FD53EC102B204610
:101838002946FEF781FE02460B4610461946FFF779
:101848003DF9034698B211493A6A13469B0013447E
:101858005B00FA691344024621F81320FB6901333F
:10186800FB61FB69092BBCDD97F83E30013387F833
:101878003E303B6A01333B623B6A022BAEDD56E0E9
:101888003B7CBB614FE000237B6141E0CC00002042
:101898002949BA6913469B0013445B007A691344CB
:1018A80031F813301846FEF7DDFD04460D4697F86B
:1018B8003E305B4207EE903AB8EEE77AD7ED007A11
:1018C80067EE277A17EE900AFEF7DEFD02460B4612
:1018D80043EC102B05F0BCFC53EC102B204629469A
:1018E800FEF72AFE02460B4610461946FFF7E6F8B1
:1018F800034698B21049BA6913469B0013445B002B
:101908007A691344024621F813207B6901337B610D
:101918007B69092BBCDD97F83E30013387F83E30F0
:10192800BB69013BBB61BB69002BACDA00BF00BFE0
:101938004037BD46B0BD00BFCC00002080B483B0A6
:1019480000AF00237B6020E000233B6017E01449D0
:101958007A6813469B0013445B003A68134431F8D5
:10196800130010497A6813469B0013445B003A68D9
:101978001344024621F813203B6801333B603B685F
:10198800092BE4DD7B6801337B607B68022BDBDDA0
:1019980000BF00BF0C37BD465DF8047B704700BF31
:1019A800CC0000200801002080B400AF00BFBD4675
:1019B8005DF8047B7047000080B483B000AF0F4B24
:1019C8001B6E0E4A43F0010313660C4B1B6E03F0AB
:1019D80001037B607B68094B9B6D084A43F0805389
:1019E8009365064B9B6D03F080533B603B6800BFDB
:1019F8000C37BD465DF8047B704700BF00100240FD
:101A080080B400AF00BFBD465DF8047B704780B46A
:101A180000AFFEE780B400AFFEE780B400AFFEE79A
:101A280080B400AFFEE780B400AF00BFBD465DF8EC
:101A3800047B704780B400AF00BFBD465DF8047BEF
:101A4800704780B400AF00BFBD465DF8047B7047A7
:101A580080B500AF00F0F2FA00BF80BD80B500AFDE
:101A6800024801F003FF00BF80BD00BFB0010020A5
:101A780080B500AF274B1B781A46274B53F8223006
:101A88001846244B1B781A46244B33F81230002290
:101A9800194602F075F91F4B1B78082B06D81D4B09
:101AA8001B780133DAB21B4B1A7002E0194B002283
:101AB8001A70184B1B781A46194B33F81220194B19
:101AC8001B685A63134B1B78154A0A3332F81320E4
:101AD800144B1B689A630F4B1B78114A143332F866
:101AE8001320104B1B68DA630A4B1B781A460A4B03
:101AF80053F822301846074B1B781A46074B33F821
:101B080012300122194602F03BF9074803F08CFE17
:101B180000BF80BD4A010020140000200000002002
:101B280008010020F80100204402002080B400AF22
:101B3800174BD3F88830164A43F47003C2F888303C
:101B4800144B1B68134A43F001031360114B002226
:101B58009A60104B1B680F4A23F0A85323F41023F4
:101B680013600C4B4FF48052DA600A4B1B68094A29
:101B780023F480231360074B00229A61044B4FF033
:101B880000629A6000BFBD465DF8047B704700BFE5
:101B980000ED00E00010024080B59AB000AF07F1F8
:101BA800580300221A605A609A60DA6007F14C0301
:101BB80000221A605A609A6007F1300300221A6006
:101BC8005A609A60DA601A615A619A613B1D2C2248
:101BD8000021184605F032FB504B514A1A604F4B12
:101BE80007225A604D4B00229A604C4B42F20F720A
:101BF800DA604A4B00221A61484B00225A61474B6F
:101C080000229A61454803F0DFFB0346002B01D010
:101C1800FFF7CAFE4FF48053BB6507F15803194616
:101C28003E4804F031F80346002B01D0FFF7BCFE14
:101C38003A4803F091FC0346002B01D0FFF7B4FEAD
:101C48000023FB6400233B6500237B6507F14C03FD
:101C58001946324804F040FD0346002B01D0FFF737
:101C6800A3FE60233B6300237B630023BB63002345
:101C7800FB6300233B6400237B640023BB6407F100
:101C8800300300221946254803F0EEFE0346002BD8
:101C980001D0FFF789FE04233B6407F130030422D7
:101CA80019461E4803F0E0FE0346002B01D0FFF75B
:101CB8007BFE07F1300308221946184803F0D4FECA
:101CC8000346002B01D0FFF76FFE00237B60002343
:101CD800BB600023FB6000233B6100237B614FF462
:101CE8000053BB610023FB6100233B624FF000738C
:101CF8007B620023BB620023FB623B1D1946074839
:101D080004F072FD0346002B01D0FFF74DFE034897
:101D180000F08EF800BF6837BD4680BDF80100208E
:101D2800002C014080B588B000AF07F110030022F5
:101D38001A605A609A60DA603B1D00221A605A6085
:101D48009A601E4B4FF080421A601C4B4F225A601B
:101D58001A4B00229A60194B40F2E732DA60174BAF
:101D680000221A61154B00229A61144803F02CFBDB
:101D78000346002B01D0FFF717FE4FF480533B6159
:101D880007F1100319460D4803F07EFF0346002BA8
:101D980001D0FFF709FE20237B600023FB603B1D79
:101DA8001946064804F098FC0346002B01D0FFF7BB
:101DB800FBFD00BF2037BD4680BD00BF44020020A8
:101DC80080B584B000AF78607B681B68164A934280
:101DD8000CD1164B1B6E154A43F400631366134B64
:101DE8001B6E03F40063FB60FB6818E07B681B68EC
:101DF800B3F1804F13D10D4B9B6D0C4A43F0010397
:101E080093650A4B9B6D03F00103BB60BB6800221E
:101E180000211C2001F0DBFB1C2001F0F4FB00BFBB
:101E28001037BD4680BD00BF002C014000100240A5
:101E380080B588B000AF786007F10C0300221A6003
:101E48005A609A60DA601A617B681B68124A93428A
:101E58001DD1124BDB6C114A43F00103D3640F4BC5
:101E6800DB6C03F00103BB60BB684FF4E063FB600D
:101E780002233B6100237B610323BB610123FB61D8
:101E880007F10C0319464FF0904001F0CFFD00BF59
:101E98002037BD4680BD00BF002C01400010024025
:101EA80080B500AF144B154A1A60134B4FF4E1325A
:101EB8005A60114B00229A600F4B0022DA600E4BD9
:101EC80000221A610C4B0C225A610B4B00229A61BA
:101ED800094B0022DA61084B00221A62064B0022E5
:101EE8005A62054804F01CFD0346002B01D0FFF799
:101EF8005BFD00BF80BD00BF900200200044004091
:101F080080B58AB000AF786007F1140300221A6028
:101F18005A609A60DA601A617B681B68174A9342B4
:101F280028D1174B9B6D164A43F400339365144B25
:101F38009B6D03F400333B613B69114BDB6C104A2A
:101F480043F00103D3640E4BDB6C03F00103FB6029
:101F5800FB680C237B610223BB610023FB61032325
:101F68003B6207237B6207F1140319464FF0904048
:101F780001F05CFD00BF2837BD4680BD004400402D
:101F88000010024080B582B000AF0023FB710C4BFB
:101F98001B680B4A43F480731360032001F00CFBA9
:101FA800002000F00FF80346002B02D00123FB713C
:101FB80001E0FFF701FDFB7918460837BD4680BDF3
:101FC8000020024080B584B000AF78600023FB7326
:101FD800174B1B78002B23D0164B1A68144B1B7811
:101FE80019464FF47A73B3FBF1F3B2FBF3F31846D7
:101FF80001F017FB0346002B0FD17B680F2B09D884
:10200800002279684FF0FF3001F0E1FA0A4A7B6854
:10201800136007E00123FB7304E00123FB7301E075
:102028000123FB73FB7B18461037BD4680BD00BFFC
:10203800440000203C0000204000002080B400AF95
:10204800064B1B781A46064B1B681344044A136058
:1020580000BFBD465DF8047B704700BF4400002008
:102068001003002080B400AF034B1B681846BD4620
:102078005DF8047B704700BF1003002080B584B072
:1020880000AF7860FFF7EEFFB8607B68FB60FB6825
:10209800B3F1FF3F05D00A4B1B781A46FB6813447F
:1020A800FB6000BFFFF7DEFF0246BB68D31AFA6881
:1020B8009A42F7D800BF00BF1037BD4680BD00BFA9
:1020C8004400002080B483B000AF786039607B683A
:1020D8009B6823F47C123B681A437B689A6000BFB4
:1020E8000C37BD465DF8047B704780B483B000AF01
:1020F800786039607B689B6823F0E0723B681A431C
:102108007B689A6000BF0C37BD465DF8047B70475A
:1021180080B483B000AF78607B689B6803F0E0739D
:1021280018460C37BD465DF8047B704780B487B00D
:1021380000AFF860B9607A603B60FB6860331A46AC
:10214800BB689B0013447B617B691A68084B13408A
:102158007A6802F0F8413A680A43134343F00042B0
:102168007B691A6000BF1C37BD465DF8047B704769
:1021780000F0FF0380B485B000AF786039607B68F9
:1021880060331A463B689B001344FB60FB681B687E
:1021980003F0F84318461437BD465DF8047B7047D2
:1021A80080B487B000AFF860B9607A60FB686033CC
:1021B8001A46BB689B0013447B617B691B6823F04C
:1021C80000427B681A437B691A6000BF1C37BD4612
:1021D8005DF8047B704780B483B000AF78607B689B
:1021E800DB6803F44063002B01D1012300E00023E6
:1021F80018460C37BD465DF8047B704780B487B03D
:1022080000AFF860B9607A60FB6830331A46BB6883
:102218001B0A9B0003F00C0313447B617B691A685B
:10222800BB6803F01F031F2101FA03F3DB431A40C5
:102238007B689B0E03F01F01BB6803F01F0301FAC4
:1022480003F31A437B691A6000BF1C37BD465DF86B
:10225800047B704780B487B000AFF860B9607A60DB
:10226800FB6814331A46BB685B0E9B0003F004033B
:1022780013447B617B691A68BB681B0D03F01F035D
:10228800072101FA03F3DB431A40BB681B0D03F077
:102298001F03796801FA03F31A437B691A6000BFC8
:1022A8001C37BD465DF8047B7047000080B485B0DC
:1022B80000AFF860B9607A60FB68D3F8B020BB68FB
:1022C800C3F31203DB431A407B6803F01803084981
:1022D800D940BB680B40C3F312031A43FB68C3F829
:1022E800B02000BF1437BD465DF8047B704700BFBF
:1022F800FFFF070080B483B000AF78607B689B68FD
:1023080003F01F0318460C37BD465DF8047B704781
:1023180080B483B000AF78607B689B6823F020436B
:1023280023F03F037A68936000BF0C37BD465DF821
:10233800047B704780B483B000AF78607B689B688B
:1023480003F00053B3F1005F01D1012300E0002343
:1023580018460C37BD465DF8047B704780B483B0DF
:1023680000AF78607B689B6823F0104323F03F033D
:1023780043F080527B689A6000BF0C37BD465DF819
:10238800047B704780B483B000AF78607B689B683B
:1023980003F08053B3F1805F01D1012300E00023F3
:1023A80018460C37BD465DF8047B704780B483B08F
:1023B80000AF78607B689B6823F0004323F03F03FD
:1023C80043F001027B689A6000BF0C37BD465DF898
:1023D800047B704780B483B000AF78607B689B68EB
:1023E80003F00103012B01D1012300E0002318466B
:1023F8000C37BD465DF8047B704780B483B000AFEE
:1024080078607B689B6823F0004323F03F0343F028
:1024180004027B689A6000BF0C37BD465DF8047BF8
:10242800704780B483B000AF78607B689B6803F026
:102438000403042B01D1012300E0002318460C37C4
:10244800BD465DF8047B704780B483B000AF786008
:102458007B689B6803F00803082B01D1012300E087
:10246800002318460C37BD465DF8047B7047000012
:1024780090B589B000AF78600023FB770023BB607C
:102488007B68002B01D1012334E17B681B69002B99
:102498007B685B6D002B09D17868FEF743FD7B688C
:1024A80000229A657B68002283F850207B681B68AD
:1024B8001846FFF73FFF0346002B04D07B681B68D4
:1024C8001846FFF725FF7B681B681846FFF75AFF79
:1024D8000346002B13D17B681B681846FFF73EFFA5
:1024E800864B1B689B09864AA2FB03239B09BB609A
:1024F80002E0BB68013BBB60BB68002BF9D17B687D
:102508001B681846FFF73EFF0346002B0DD17B687A
:102518005B6D43F010027B685A657B689B6D43F0E6
:1025280001027B689A650123FB777B681B68184664
:10253800FFF777FF78617B685B6D03F01003002B72
:1025480040F0CF807B69002B40F0CB807B685B6DCF
:1025580023F4817343F002027B685A657B681B6829
:102568001846FFF737FF0346002B15D16548FFF7DC
:1025780031FF04466448FFF72DFF03461C436348B8
:10258800FFF728FF03462343002B05D17B685B68D0
:1025980019465F48FFF796FD7B685B7E5A037B68A8
:1025A8005B6B1A437B68DB681A437B689B681A433A
:1025B8007B6893F820301B041343BB617B6893F856
:1025C8002030012B06D17B685B6A013B5B04BA694A
:1025D8001343BB617B689B6A002B09D07B689B6AAD
:1025E80003F470727B68DB6A1343BA691343BB61F7
:1025F8007B681B68DA68474B13407A681268B969C8
:102608000B43D3607B681B681846FFF70AFF3861E5
:102618007B681B681846FFF717FFF8603B69002BBB
:102628003DD1FB68002B3AD17B681B7E9A037B68FF
:1026380093F830305B001343BB617B681B68DB6831
:1026480023F4804323F002037A681268B9690B43C4
:10265800D3607B6893F83830012B18D17B681B68EE
:102668001B6923F4FF6323F004037A68D16B7A684B
:10267800126C11437A68526C11437A68926C0A435F
:102688001A437B681B6842F001021A6107E07B6805
:102698001B681A697B681B6822F001021A617B6853
:1026A8001B69012B0CD17B681B681B6B23F00F0186
:1026B8007B68DB695A1E7B681B680A431A6307E05C
:1026C8007B681B681A6B7B681B6822F00F021A6311
:1026D8007B685B6D23F0030343F001027B685A6556
:1026E80007E07B685B6D43F010027B685A65012345
:1026F800FB77FB7F18462437BD4690BD3C00002081
:10270800632D3E05000004500001045000020450EF
:102718000003045007C0F0FF80B586B000AFF86032
:10272800B9607A605048FFF7E5FD3861FB681B68BF
:102738001846FFF776FE0346002B40F08E80FB68B4
:1027480093F85030012B01D1022389E0FB68012264
:1027580083F850203B69002B05D03B69052B02D03C
:102768003B69092B72D1F86800F096FC0346FB75AB
:10277800FB7D002B65D1FB685B6D23F4706323F050
:10278800010343F48072FB685A65FB681B68374A8B
:10279800934202D0FB681B6800E0354BFA68126868
:1027A800934202D03B69002B05D1FB685B6D23F493
:1027B8008012FB685A65FB685B6D03F48053002B3D
:1027C80006D0FB689B6D23F00602FB689A6502E061
:1027D800FB6800229A65FB68DB6C264ADA62FB68B4
:1027E800DB6C254A1A63FB68DB6C244A5A63FB6876
:1027F8001B681C221A60FB68002283F85020FB68C3
:102808001B685A68FB681B6842F010025A60FB6834
:102818001B68DA68FB681B6842F00102DA60FB6833
:10282800D86CFB681B6840331946BA687B6800F0AF
:10283800BDFF0346FB75FB681B681846FFF7DDFD07
:102848000DE0FB68002283F8502008E00123FB75A7
:10285800FB68002283F8502001E00223FB75FB7D12
:1028680018461837BD4680BD0003045000010450C7
:1028780000000450553100082D3200084932000884
:1028880080B483B000AF786000BF0C37BD465DF8F8
:10289800047B704780B483B000AF786000BF0C370A
:1028A800BD465DF8047B704780B483B000AF7860A4
:1028B80000BF0C37BD465DF8047B704780B5B6B0E5
:1028C80000AF78603960002387F8D7300023FB60B9
:1028D8007B6893F85030012B01D10223C6E37B6853
:1028E800012283F850207B681B681846FFF799FD82
:1028F8000346002B40F0A7833B685B68052B24D870
:102908003B685B68023B032B1BD801A252F823F0FB
:102918002929000831290008392900084129000817
:102928003B680C225A6011E03B6812225A600DE0A5
:102938003B6818225A6009E03B684FF480725A607D
:1029480004E03B6806225A6000E000BF7B68186814
:102958003B6859683B681B681A46FFF74FFC7B6861
:102968001B681846FFF75DFDC7F8D0007B681B6839
:102978001846FFF769FDC7F8CC00D7F8D030002B10
:1029880040F0A681D7F8CC30002B40F0A1817B68BD
:1029980018683B6819683B689B681A46FFF75AFC39
:1029A8003B685A697B681B68DB68DB0803F0030334
:1029B8005B0002FA03F3C7F8C8303B681B69042BB5
:1029C8000AD07B6818683B6819693B681A68D7F8A9
:1029D800C830FFF7ABFB7BE17B681B68002118461A
:1029E800FFF7C8FB0346C3F31203002B0AD17B6829
:1029F8001B6800211846FFF7BDFB03469B0E03F03A
:102A08001F021EE07B681B6800211846FFF7B2FB17
:102A18000346C7F8BC30D7F8BC3093FAA3F3C7F81D
:102A2800B830D7F8B830C7F8C030D7F8C030002B66
:102A380001D1202304E0D7F8C030B3FA83F3DBB226
:102A48001A463B681B68C3F31203002B05D13B6889
:102A58001B689B0E03F01F0318E03B681B68C7F850
:102A6800B030D7F8B03093FAA3F3C7F8AC30D7F842
:102A7800AC30C7F8B430D7F8B430002B01D12023DC
:102A880004E0D7F8B430B3FA83F3DBB29A4206D144
:102A98007B681B68002200211846FFF781FB7B68D2
:102AA8001B6801211846FFF765FB0346C3F31203B1
:102AB800002B0AD17B681B6801211846FFF75AFBD7
:102AC80003469B0E03F01F021EE07B681B68012172
:102AD8001846FFF74FFB0346C7F8A430D7F8A430D1
:102AE80093FAA3F3C7F8A030D7F8A030C7F8A830F6
:102AF800D7F8A830002B01D1202304E0D7F8A8305C
:102B0800B3FA83F3DBB21A463B681B68C3F31203BC
:102B1800002B05D13B681B689B0E03F01F0318E0D0
:102B28003B681B68C7F89830D7F8983093FAA3F336
:102B3800C7F89430D7F89430C7F89C30D7F89C3051
:102B4800002B01D1202304E0D7F89C30B3FA83F39B
:102B5800DBB29A4206D17B681B6800220121184625
:102B6800FFF71EFB7B681B6802211846FFF702FB74
:102B78000346C3F31203002B0AD17B681B680221AA
:102B88001846FFF7F7FA03469B0E03F01F021EE0F4
:102B98007B681B6802211846FFF7ECFA0346C7F862
:102BA8008C30D7F88C3093FAA3F3C7F88830D7F86D
:102BB8008830C7F89030D7F89030002B01D1202307
:102BC80004E0D7F89030B3FA83F3DBB21A463B68D7
:102BD8001B68C3F31203002B05D13B681B689B0ECF
:102BE80003F01F0316E03B681B68C7F88030D7F86E
:102BF800803093FAA3F3FB67FB6FC7F88430D7F8EC
:102C08008430002B01D1202304E0D7F88430B3FAB4
:102C180083F3DBB29A4206D17B681B68002202214B
:102C28001846FFF7BDFA7B681B6803211846FFF7B3
:102C3800A1FA0346C3F31203002B0AD17B681B6871
:102C480003211846FFF796FA03469B0E03F01F026E
:102C580017E07B681B6803211846FFF78BFA0346C9
:102C68007B677B6F93FAA3F33B673B6FBB67BB6FD5
:102C7800002B01D1202303E0BB6FB3FA83F3DBB24F
:102C88001A463B681B68C3F31203002B05D13B6847
:102C98001B689B0E03F01F0311E03B681B68BB66B3
:102CA800BB6E93FAA3F37B667B6EFB66FB6E002B11
:102CB80001D1202303E0FB6EB3FA83F3DBB29A421F
:102CC80006D17B681B68002203211846FFF768FAC3
:102CD8007B681B681846FFF77DFB0346002B40F016
:102CE8003F817B6818683B6819683B68DB681A464F
:102CF800FFF7DCFA3B68DB688E4A934240F030818C
:102D08007B6818683B681B68C3F31203002B0BD160
:102D18003B681B689B0E013303F01F03092B94BF0C
:102D280001230023DBB219E03B681B68FB65FB6DE0
:102D380093FAA3F3BB65BB6D3B663B6E002B01D1D9
:102D4800202303E03B6EB3FA83F3DBB2013303F0D5
:102D58001F03092B94BF01230023DBB2002B79D07A
:102D68003B681B68C3F31203002B07D13B681B6841
:102D78009B0E01339B0603F0F84215E03B681B6885
:102D88003B653B6D93FAA3F3FB64FB6C7B657B6D42
:102D9800002B01D1202303E07B6DB3FA83F3DBB270
:102DA80001339B0603F0F8423B681B68C3F3120328
:102DB800002B09D13B681B689B0E013303F01F03EE
:102DC800012101FA03F317E03B681B687B647B6C05
:102DD80093FAA3F33B643B6CBB64BB6C002B01D13F
:102DE800202303E0BB6CB3FA83F3DBB2013303F0B7
:102DF8001F03012101FA03F342EA03013B681B6840
:102E0800C3F31203002B0AD13B681B689B0E0133E6
:102E180003F01F0213465B0013441B0518E03B68D0
:102E28001B68BB63BB6B93FAA3F37B637B6BFB638E
:102E3800FB6B002B01D1202303E0FB6BB3FA83F378
:102E4800DBB2013303F01F0213465B0013441B057A
:102E58000B4380E03B681B68C3F31203002B07D1C8
:102E68003B681B689B0E01339B0603F0F84215E094
:102E78003B681B68FB62FB6A93FAA3F3BB62BB6AFD
:102E88003B633B6B002B01D1202303E03B6BB3FA80
:102E980083F3DBB201339B0603F0F8423B681B68FF
:102EA800C3F31203002B09D13B681B689B0E013347
:102EB80003F01F03012101FA03F317E03B681B68C5
:102EC8003B623B6A93FAA3F3FB61FB697B627B6A13
:102ED800002B01D1202303E07B6AB3FA83F3DBB232
:102EE800013303F01F03012101FA03F342EA03014E
:102EF8003B681B68C3F31203002B0DD13B681B68AA
:102F08009B0E013303F01F0213465B0013441E3B64
:102F18001B0543F000731DE03B681B687B617B6900
:102F280093FAA3F33B613B69BB61BB69002B03D1F7
:102F3800202305E000007F40BB69B3FA83F3DBB2CE
:102F4800013303F01F0213465B0013441E3B1B05AD
:102F580043F000730B433A6892681946FFF77AF911
:102F68003B681A68434B1340002B79D04248FFF75F
:102F7800CFF8C7F8C4003B681B68404A93422BD17E
:102F8800D7F8C43003F40003002B25D17B681B68F5
:102F98003B4A934204D07B681B683A4A93425CD10F
:102FA800D7F8C43043F4000319463348FFF79DF8B7
:102FB800354B1B689B09354AA2FB03239A09134624
:102FC8005B0013449B00FB6002E0FB68013BFB6075
:102FD800FB68002BF9D140E03B681B682C4A934200
:102FE80018D1D7F8C43003F08073002B12D17B6856
:102FF8001B68234A934204D07B681B68214A93428A
:103008002DD1D7F8C43043F0807319461A48FFF71A
:103018006CF824E03B681B681E4A934220D1D7F81D
:10302800C43003F48003002B1AD17B681B68144A50
:10303800934215D1D7F8C43043F4800319460E489B
:10304800FFF753F80CE07B685B6D43F020027B6868
:103058005A65012387F8D73002E000BF00E000BFBF
:103068007B68002283F8502097F8D7301846D83765
:10307800BD4680BD0000088000030450000052C710
:1030880000000450000204503C000020632D3E055F
:10309800000084CB0100008080B584B000AF786068
:1030A8007B681B681846FFF795F90346002B46D145
:1030B8007B681B689A68244B1340002B0DD07B68F3
:1030C8005B6D43F010027B685A657B689B6D43F02B
:1030D80001027B689A65012332E07B681B68184609
:1030E800FFF764F9FEF7BEFFF86021E07B681B6814
:1030F8001846FFF76FF90346002B04D17B681B685D
:103108001846FFF753F9FEF7ADFF0246FB68D31ADE
:10311800022B0DD97B685B6D43F010027B685A6502
:103128007B689B6D43F001027B689A65012307E089
:103138007B681B681B6803F00103012BD6D10023B1
:1031480018461037BD4680BD3F00008080B584B06A
:1031580000AF78607B689B6AFB60FB685B6D03F07F
:103168005003002B4BD1FB685B6D43F40072FB6886
:103178005A65FB681B681B6803F00803002B21D005
:10318800FB681B681846FFF726F80346002B32D069
:10319800FB681B68DB6803F40053002B2BD1FB682A
:1031A8005B6D23F48072FB685A65FB685B6D03F402
:1031B8008053002B1FD1FB685B6D43F00102FB6855
:1031C8005A6518E0FB681B68DB6803F00203002BF4
:1031D80011D1FB685B6D23F48072FB685A65FB684C
:1031E8005B6D03F48053002B05D1FB685B6D43F0E6
:1031F8000102FB685A65F868FFF742FB0EE0FB68BE
:103208005B6D03F01003002B03D0F868FFF74CFB4D
:1032180004E0FB68DB6C5B6B7868984700BF10378D
:10322800BD4680BD80B584B000AF78607B689B6A7E
:10323800FB60F868FFF72EFB00BF1037BD4680BD66
:1032480080B584B000AF78607B689B6AFB60FB68E0
:103258005B6D43F04002FB685A65FB689B6D43F069
:103268000402FB689A65F868FFF71EFB00BF103779
:10327800BD4680BD80B483B000AF78607B689B6832
:1032880003F00103012B01D1012300E000231846BC
:103298000C37BD465DF8047B704780B483B000AF3F
:1032A80078607B689B6803F00403042B01D1012339
:1032B80000E0002318460C37BD465DF8047B7047D4
:1032C80090B59FB000AF78603960002387F87730F9
:1032D8007B6893F85030012B01D102238FE07B6883
:1032E800012283F850207B681B68474A934202D129
:1032F800464BBB6001E00023BB60BB68002B0BD1D1
:103308007B685B6D43F020027B685A657B6800220E
:1033180083F85020012372E0BB681846FFF7BDFF11
:1033280038677B681B681846FFF7B7FF0346002B12
:1033380054D13B6F002B51D1354BFB663B681B6862
:10334800002B2CD0FB6E9B6823F460423B685968C5
:103358007B6893F830305B030B431A43FB6E9A602B
:103368002948FFF787FF04462848FFF783FF0346ED
:103378001C432848FFF77EFF03462343002B37D121
:10338800FB6E9B6823F4716323F00F033A6811689E
:103398003A6892680A431A43FB6E9A6028E0FB6E0B
:1033A8009B6823F46042FB6E9A601748FFF762FF40
:1033B80004461648FFF75EFF03461C431548FFF70F
:1033C80059FF03462343002B12D1FB6E9B6823F45D
:1033D800716323F00F03FA6E936009E07B685B6DFD
:1033E80043F020027B685A65012387F8773000E0B4
:1033F80000BF7B68002283F8502097F87730184682
:103408007C37BD4690BD00BF000004500001045049
:10341800000304500002045080B485B000AF786007
:103428007B6803F00703FB600C4BDB68BB60BA6882
:103438004FF6FF031340BB60FB681A02BB681343D7
:1034480043F0BF6343F40033BB60044ABB68D360F6
:1034580000BF1437BD465DF8047B704700ED00E0FF
:1034680080B400AF044BDB681B0A03F0070318465F
:10347800BD465DF8047B704700ED00E080B483B082
:1034880000AF0346FB7197F90730002B0BDBFB7984
:1034980003F01F02074997F907305B09012000FA7A
:1034A80002F241F8232000BF0C37BD465DF8047BCB
:1034B800704700BF00E100E080B483B000AF03466E
:1034C8003960FB7197F90730002B0ADB3B68DAB2E9
:1034D8000C4997F907301201D2B20B4483F8002344
:1034E8000AE03B68DAB20849FB7903F00F03043BB2
:1034F8001201D2B20B441A7600BF0C37BD465DF8F4
:10350800047B704700E100E000ED00E080B489B082
:1035180000AFF860B9607A60FB6803F00703FB61ED
:10352800FB69C3F10703042B28BF0423BB61FB69B4
:103538000433062B02D9FB69033B00E000237B61BF
:103548004FF0FF32BB6902FA03F3DA43BB681A4053
:103558007B699A404FF0FF317B6901FA03F3D94345
:103568007B680B40134318462437BD465DF8047B3F
:103578007047000080B582B000AF78607B68013B7F
:10358800B3F1807F01D301230FE00A4A7B68013B36
:1035980053600F214FF0FF30FFF78EFF054B0022DD
:1035A8009A60044B07221A60002318460837BD4664
:1035B80080BD00BF10E000E080B582B000AF786049
:1035C8007868FFF729FF00BF0837BD4680BD80B582
:1035D80086B000AF0346B9607A60FB7300237B6155
:1035E800FFF73EFF78617A68B9687869FFF78EFF60
:1035F800024697F90F3011461846FFF75DFF00BFE6
:103608001837BD4680BD80B582B000AF0346FB7158
:1036180097F907301846FFF731FF00BF0837BD4656
:1036280080BD80B582B000AF78607868FFF7A2FFF0
:10363800034618460837BD4680BD000080B485B0F3
:1036480000AF78607B68002B01D1012398E07B688C
:103658001B681A464D4B9A420FD87B681B681A465E
:103668004B4B13444B4AA2FB03231B099A007B686C
:103678005A647B68484A1A640EE07B681B681A46DD
:10368800464B1344434AA2FB03231B099A007B6859
:103698005A647B68424A1A647B68022283F82520B0
:1036A8007B681B681B68FB60FB6823F4FF4323F0FF
:1036B8007003FB607B689A687B68DB681A437B68E9
:1036C8001B691A437B685B691A437B689B691A43C9
:1036D8007B68DB691A437B681B6A1343FA681343E8
:1036E800FB607B681B68FA681A607B689B68B3F5A7
:1036F800804F39D07B681B6C274A93421AD1294BDB
:103708001A687B685B6C03F01C030F2101FA03F352
:10371800DB43244913400B60224B1A687B685968C5
:103728007B685B6C03F01C0301FA03F31D49134328
:103738000B6019E01C4B1A687B685B6C03F01C0378
:103748000F2101FA03F3DB43174913400B60164BB3
:103758001A687B6859687B685B6C03F01C0301FA84
:1037680003F3114913430B607B680022DA637B681B
:10377800012283F825207B68002283F82420002377
:1037880018461437BD465DF8047B704707040240AD
:10379800F8FFFDBFCDCCCCCC00000240F8FBFDBF4C
:1037A80000040240A8000240A804024080B586B088
:1037B80000AFF860B9607A603B600023FB75FB6876
:1037C80093F82430012B01D102234BE0FB6801223E
:1037D80083F82420FB6893F82530DBB2012B3AD11B
:1037E800FB68022283F82520FB680022DA63FB6865
:1037F8001B681A68FB681B6822F001021A603B68A4
:103808007A68B968F86800F0E0F8FB681B6B002B71
:1038180008D0FB681B681A68FB681B6842F00E0238
:103828001A600FE0FB681B681A68FB681B6822F0C7
:1038380004021A60FB681B681A68FB681B6842F080
:103848000A021A60FB681B681A68FB681B6842F06A
:1038580001021A6005E0FB68002283F82420022395
:10386800FB75FB7D18461837BD4680BD80B584B012
:1038780000AF78607B681B6C1B68FB607B681B680B
:103888001B68BB607B685B6C03F01C0304229A40D6
:10389800FB681340002B26D0BB6803F00403002B01
:1038A80021D07B681B681B6803F02003002B07D11D
:1038B8007B681B681A687B681B6822F004021A6020
:1038C8007B685B6C03F01C027B681B6C042101FAAB
:1038D80002F25A607B681B6B002B71D07B681B6BF4
:1038E800786898476CE07B685B6C03F01C030222E5
:1038F8009A40FB681340002B2ED0BB6803F00203EC
:10390800002B29D07B681B681B6803F02003002B61
:103918000BD17B681B681A687B681B6822F00A0257
:103928001A607B68012283F825207B685B6C03F0B2
:103938001C027B681B6C022101FA02F25A607B6848
:10394800002283F824207B68DB6A002B38D07B6850
:10395800DB6A7868984733E07B685B6C03F01C038C
:1039680008229A40FB681340002B2AD0BB6803F05A
:103978000803002B25D07B681B681A687B681B68C6
:1039880022F00E021A607B685B6C03F01C027B68F5
:103998001B6C012101FA02F25A607B680122DA638A
:1039A8007B68012283F825207B68002283F8242085
:1039B8007B685B6B002B04D07B685B6B78689847EF
:1039C80000BF00BF1037BD4680BD80B485B000AFD2
:1039D800F860B9607A603B60FB685B6C03F01C02BE
:1039E800FB681B6C012101FA02F25A60FB681B6834
:1039F8003A685A60FB689B68102B08D1FB681B6803
:103A08007A689A60FB681B68BA68DA6007E0FB6846
:103A18001B68BA689A60FB681B687A68DA6000BF3E
:103A28001437BD465DF8047B7047000080B487B04A
:103A380000AF7860396000237B617FE13B681A68DA
:103A480001217B6901FA03F31340FB60FB68002B3B
:103A580000F071813B685B68012B0BD03B685B68A9
:103A6800022B07D03B685B68112B03D03B685B686F
:103A7800122B30D17B689B683B617B695B0003221A
:103A880002FA03F3DB433A6913403B613B68DA68A7
:103A98007B695B0002FA03F33A6913433B617B6875
:103AA8003A699A607B685B683B6101227B6902FA2C
:103AB80003F3DB433A6913403B613B685B681B09CE
:103AC80003F001027B6902FA03F33A6913433B618D
:103AD8007B683A695A603B685B6803F00303032B11
:103AE80018D17B68DB6A3B6101227B6902FA03F328
:103AF800DB433A6913403B613B685B68DB0803F0D2
:103B080001027B6902FA03F33A6913433B617B685C
:103B18003A69DA627B68DB683B617B695B00032298
:103B280002FA03F3DB433A6913403B613B689A6846
:103B38007B695B0002FA03F33A6913433B617B68D4
:103B48003A69DA603B685B68022B03D03B685B68C4
:103B5800122B23D17B69DA087B68083253F82230AC
:103B68003B617B6903F007039B000F2202FA03F312
:103B7800DB433A6913403B613B681A697B6903F090
:103B880007039B0002FA03F33A6913433B617B691D
:103B9800DA087B680832396943F822107B681B68A9
:103BA8003B617B695B00032202FA03F3DB433A695A
:103BB80013403B613B685B6803F003027B695B0071
:103BC80002FA03F33A6913433B617B683A691A6066
:103BD8003B685B6803F08053002B00F0AC805F4BC0
:103BE8001B6E5E4A43F0010313665C4B1B6E03F0C9
:103BF8000103BB60BB685A4A7B699B08023352F8D1
:103C080023303B617B6903F003039B000F2202FA18
:103C180003F3DB433A6913403B617B68B3F1904F90
:103C280025D07B684F4A93421FD07B684E4A934207
:103C380019D07B684D4A934213D07B684C4A934213
:103C48000DD07B684B4A934207D07B684A4A93421F
:103C580001D106230CE007230AE0052308E004232A
:103C680006E0032304E0022302E0012300E000232E
:103C78007A6902F00302920093403A6913433B6168
:103C880037497B699B0802333A6941F823203B4B4B
:103C98001B683B61FB68DB433A6913403B613B6847
:103CA8005B6803F48033002B03D03A69FB68134345
:103CB8003B61324A3B691360304B5B683B61FB6890
:103CC800DB433A6913403B613B685B6803F40033AC
:103CD800002B03D03A69FB6813433B61274A3B69D1
:103CE8005360264B9B683B61FB68DB433A69134092
:103CF8003B613B685B6803F48013002B03D03A698F
:103D0800FB6813433B611D4A3B6993601B4BDB68AF
:103D18003B61FB68DB433A6913403B613B685B6886
:103D280003F40013002B03D03A69FB6813433B618B
:103D3800124A3B69D3607B6901337B613B681A682F
:103D48007B6922FA03F3002B7FF478AE00BF00BF33
:103D58001C37BD465DF8047B704700BF0010024069
:103D6800000001400004004800080048000C00481A
:103D780000100048001400480018004800040140E2
:103D880080B483B000AF78600B467B8013467B70AD
:103D98007B78002B03D07A887B689A6102E07A8866
:103DA8007B689A6200BF0C37BD465DF8047B70479C
:103DB80080B400AF044B1B6803F4C0631846BD46CB
:103DC8005DF8047B704700BF0070004080B485B088
:103DD80000AF78607B68B3F5007F30D1234B1B6858
:103DE80003F4C063B3F5007F38D0204B1B6823F47D
:103DF800C0631E4A43F4007313601D4B1B683222D4
:103E080002FB03F31B4AA2FB03239B0C0133FB6059
:103E180002E0FB68013BFB60144B5B6903F48063C1
:103E2800B3F5806F02D1FB68002BF2D10F4B5B69B1
:103E380003F48063B3F5806F10D103230FE00B4BBD
:103E48001B6803F4C063B3F5806F07D0074B1B688A
:103E580023F4C063054A43F48063136000231846C3
:103E68001437BD465DF8047B704700BF0070004002
:103E78003C00002083DE1B4380B588B000AF78602B
:103E88007B68002B01D10123D4E3A14B9B6803F08D
:103E98000C03BB619E4BDB6803F003037B617B680B
:103EA8001B6803F01003002B00F0E480BB69002BB3
:103EB80007D0BB690C2B40F08B807B69012B40F04D
:103EC8008780934B1B6803F00203002B05D07B68A7
:103ED8009B69002B01D10123ACE37B681A6A8C4BE8
:103EE8001B6803F00803002B04D0894B1B6803F000
:103EF800F00305E0864BD3F894301B0903F0F00378
:103F0800934223D27B681B6A184600F041FD0346A2
:103F1800002B01D001238DE37D4B1B687C4A43F0C5
:103F2800080313607A4B1B6823F0F0027B681B6A56
:103F3800774913430B60764B5B6823F47F427B68B9
:103F4800DB691B02724913434B6025E0704B1B6809
:103F58006F4A43F0080313606D4B1B6823F0F002AF
:103F68007B681B6A6A4913430B60694B5B6823F4DF
:103F78007F427B68DB691B02654913434B60BB6961
:103F8800002B09D17B681B6A184600F001FD034627
:103F9800002B01D001234DE300F036FC02465C4BB8
:103FA8009B681B0903F00F035A49CB5C03F01F03FE
:103FB80022FA03F3584A1360584B1B681846FEF759
:103FC80001F80346FB73FB7B002B52D0FB7B31E3EC
:103FD8007B689B69002B32D04D4B1B684C4A43F0E1
:103FE80001031360FEF73EF8386108E0FEF73AF87F
:103FF80002463B69D31A022B01D903231AE3444B27
:104008001B6803F00203002BF0D0414B1B68404AA9
:1040180043F0080313603E4B1B6823F0F0027B68F3
:104028001B6A3B4913430B60394B5B6823F47F429F
:104038007B68DB691B02364913434B601AE0344B3B
:104048001B68334A23F001031360FEF70BF838614D
:1040580008E0FEF707F802463B69D31A022B01D99C
:104068000323E7E22A4B1B6803F00203002BF0D17D
:1040780000E000BF7B681B6803F00103002B74D0CD
:10408800BB69082B05D0BB690C2B0ED17B69032BB0
:104098000BD11F4B1B6803F40033002B64D07B68E3
:1040A8005B68002B60D10123C4E27B685B68B3F5D1
:1040B800803F06D1164B1B68154A43F480331360C2
:1040C8001DE07B685B68B3F5A02F0CD1104B1B6813
:1040D8000F4A43F4802313600D4B1B680C4A43F4CA
:1040E800803313600BE00A4B1B68094A23F48033C2
:1040F8001360074B1B68064A23F4802313607B6810
:104108005B68002B1CD0FDF7ADFF386111E000BFE4
:1041180000100240207600083C00002040000020EB
:10412800FDF7A0FF02463B69D31A642B01D903238C
:1041380080E2AF4B1B6803F40033002BF0D014E08F
:10414800FDF790FF386108E0FDF78CFF02463B69F8
:10415800D31A642B01D903236CE2A54B1B6803F423
:104168000033002BF0D100E000BF7B681B6803F030
:104178000203002B60D0BB69042B05D0BB690C2B54
:1041880019D17B69022B16D1994B1B6803F4806304
:10419800002B05D07B68DB68002B01D1012349E2A5
:1041A800934B5B6823F0F8527B681B691B069049A8
:1041B80013434B6040E07B68DB68002B23D08C4BBB
:1041C8001B688B4A43F480731360FDF74BFF38611B
:1041D80008E0FDF747FF02463B69D31A022B01D9D5
:1041E800032327E2824B1B6803F48063002BF0D083
:1041F8007F4B5B6823F0F8527B681B691B067C4980
:1042080013434B6018E07A4B1B68794A23F4807398
:104218001360FDF727FF386108E0FDF723FF02462A
:104228003B69D31A022B01D9032303E2704B1B68A5
:1042380003F48063002BF0D17B681B6803F008034C
:10424800002B3CD07B685B69002B1CD0684BD3F8F3
:104258009430674A43F00103C2F89430FDF702FF37
:10426800386108E0FDF7FEFE02463B69D31A022BCF
:1042780001D90323DEE15E4BD3F8943003F0020347
:10428800002BEFD01BE05A4BD3F89430584A23F058
:104298000103C2F89430FDF7E5FE386108E0FDF748
:1042A800E1FE02463B69D31A022B01D90323C1E17F
:1042B8004F4BD3F8943003F00203002BEFD17B6807
:1042C8001B6803F00403002B00F0A6800023FB7793
:1042D800474B9B6D03F08053002B0DD1444B9B6DD6
:1042E800434A43F080539365414B9B6D03F08053E1
:1042F800BB60BB680123FB773E4B1B6803F48073EC
:10430800002B18D13B4B1B683A4A43F48073136067
:10431800FDF7A8FE386108E0FDF7A4FE02463B69F8
:10432800D31A022B01D9032384E1324B1B6803F40F
:104338008073002BF0D07B689B68012B08D12C4B35
:10434800D3F890302A4A43F00103C2F8903024E0B1
:104358007B689B68052B10D1254BD3F89030244AF5
:1043680043F00403C2F89030214BD3F89030204A30
:1043780043F00103C2F890300FE01D4BD3F89030A2
:104388001B4A23F00103C2F89030194BD3F8903040
:10439800174A23F00403C2F890307B689B68002B0F
:1043A80016D0FDF75FFE38610AE0FDF75BFE0246B6
:1043B8003B69D31A41F28832934201D9032339E188
:1043C8000B4BD3F8903003F00203002BEDD01AE02A
:1043D800FDF748FE38610FE0FDF744FE02463B69F1
:1043E800D31A41F28832934206D9032322E100BF4F
:1043F8000010024000700040904BD3F8903003F05A
:104408000203002BE8D1FB7F012B05D18B4B9B6D61
:104418008A4A23F0805393657B689B6A002B00F0DF
:1044280008817B689B6A022B40F0D080834BDB6855
:104438007B617B6903F003027B68DB6A9A4230D1B7
:104448007B6903F070027B681B6B013B1B019A427E
:1044580027D17B6903F4FE427B685B6B1B029A429F
:104468001FD17B6903F400337A68926B072A14BF63
:1044780001220022D2B2934213D17B6903F4C00215
:104488007B68DB6B5B08013B5B059A4209D17B6962
:1044980003F0C0627B681B6C5B08013B5B069A42B9
:1044A8006ED0BB690C2B69D0644B1B6803F080632A
:1044B800002B05D1614B1B6803F08053002B01D002
:1044C8000123B7E05D4B1B685C4A23F080731360DF
:1044D800FDF7C8FD386108E0FDF7C4FD02463B69F9
:1044E800D31A022B01D90323A4E0544B1B6803F011
:1044F8000073002BF0D1514BDA68514B13407A68A6
:10450800D16A7A68126B013A120111437A68526BC8
:10451800120211437A68D26B5208013A52051143CC
:104528007A68126C5208013A520611437A68926B03
:10453800120952040A4341491343CB603F4B1B689D
:104548003E4A43F0807313603C4BDB683B4A43F0C0
:104558008073D360FDF786FD386108E0FDF782FDC2
:1045680002463B69D31A022B01D9032362E0334B7D
:104578001B6803F00073002BF0D05AE0012359E0C8
:104588002E4B1B6803F00073002B52D12B4B1B687A
:104598002A4A43F080731360284BDB68274A43F0AC
:1045A8008073D360FDF75EFD386108E0FDF75AFDC2
:1045B80002463B69D31A022B01D903233AE01F4B69
:1045C8001B6803F00073002BF0D032E0BB690C2BA2
:1045D8002DD01A4B1B68194A23F080731360174BB0
:1045E8001B6803F02053002B05D1144BDB68134ADA
:1045F80023F00303D360114BDB68104A23F0887360
:1046080023F48033D360FDF72DFD386108E0FDF712
:1046180029FD02463B69D31A022B01D9032309E07D
:10462800064B1B6803F00073002BF0D101E0012357
:1046380000E0002318462037BD4680BD0010024028
:104648008C809DF980B584B000AF786039607B6854
:10465800002B01D10123C8E0664B1B6803F0070358
:104668003A689A4210D9634B1B6823F007026149E4
:104678003B6813430B605F4B1B6803F007033A6802
:104688009A4201D00123B0E07B681B6803F0010364
:10469800002B4CD07B685B68032B07D1564B1B68FB
:1046A80003F00073002B21D101239EE07B685B6837
:1046B800022B07D1504B1B6803F40033002B15D194
:1046C800012392E07B685B68002B07D14A4B1B688B
:1046D80003F00203002B09D1012386E0464B1B6837
:1046E80003F48063002B01D101237EE0424B9B68D9
:1046F80023F003027B685B683F4913438B60FDF737
:10470800B1FCF8600AE0FDF7ADFC0246FB68D31A7D
:1047180041F28832934201D9032366E0364B9B6805
:1047280003F00C027B685B689B009A42EBD17B68C4
:104738001B6803F00203002B08D02F4B9B6823F063
:10474800F0027B689B682C4913438B60294B1B68DC
:1047580003F007033A689A4210D2264B1B6823F0ED
:10476800070224493B6813430B60224B1B6803F084
:1047780007033A689A4201D0012336E07B681B6838
:1047880003F00403002B08D01B4B9B6823F4E06262
:104798007B68DB68184913438B607B681B6803F0F0
:1047A8000803002B09D0144B9B6823F460527B68E4
:1047B8001B69DB00104913438B6000F025F80246A3
:1047C8000D4B9B681B0903F00F030C49CB5C03F0EE
:1047D8001F0322FA03F30A4A13600A4B1B681846A0
:1047E800FDF7F0FB0346FB72FB7A18461037BD460F
:1047F80080BD00BF00200240001002402076000863
:104808003C0000204000002080B489B000AF0023A5
:10481800FB610023BB613E4B9B6803F00C033B61CB
:104828003B4BDB6803F00303FB603B69002B05D0BF
:104838003B690C2B21D1FB68012B1ED1344B1B6823
:1048480003F00803002B07D1314BD3F894301B0A2F
:1048580003F00F03FB6105E02D4B1B681B0903F0F8
:104868000F03FB612B4AFB6952F82330FB613B695C
:10487800002B0DD1FB69BB610AE03B69042B02D117
:10488800254BBB6104E03B69082B01D1234BBB617D
:104898003B690C2B34D11E4BDB6803F00303BB6070
:1048A800BB68022B03D0BB68032B03D005E01A4B6F
:1048B8007B6105E0194B7B6102E0FB697B6100BF0E
:1048C800134BDB681B0903F0070301337B60104BB4
:1048D800DB681B0A03F07F037A6902FB03F27B683B
:1048E800B2FBF3F37B610A4BDB685B0E03F0030357
:1048F80001335B003B607A693B68B2FBF3F3BB6151
:10490800BB6918462437BD465DF8047B704700BF75
:1049180000100240387600080024F40000127A00E3
:1049280080B400AF034B1B681846BD465DF8047B96
:10493800704700BF3C00002080B500AFFFF7F0FFD4
:104948000246064B9B681B0A03F007030449CB5C2D
:1049580003F01F0322FA03F3184680BD001002403B
:104968003076000880B500AFFFF7DAFF0246064B45
:104978009B68DB0A03F007030449CB5C03F01F03C1
:1049880022FA03F3184680BD001002403076000872
:1049980080B586B000AF786000233B612A4B9B6DE1
:1049A80003F08053002B03D0FFF702FA786114E07C
:1049B800254B9B6D244A43F080539365224B9B6D96
:1049C80003F08053FB60FB68FFF7F2F978611E4B38
:1049D8009B6D1D4A23F0805393657B69B3F5007F77
:1049E8000BD17B68802B19D97B68A02B02D90223B5
:1049F8003B6113E001233B6110E07B68802B02D907
:104A080003233B610AE07B68802B02D102233B61D0
:104A180004E07B68702B01D101233B610B4B1B68C1
:104A280023F0070209493B6913430B60074B1B68D6
:104A380003F007033A699A4201D0012300E00023FA
:104A480018461837BD4680BD0010024000200240BD
:104A580080B586B000AF78600023FB740023BB7478
:104A68007B681B6803F40063002B41D07B685B6E96
:104A7800B3F5400F2AD0B3F5400F24D8B3F5000F93
:104A880008D0B3F5000F1ED8002B0AD0B3F5800F5D
:104A980010D018E0864BDB68854A43F48033D36036
:104AA80015E07B6804330021184600F0BBFA034682
:104AB800FB740CE07B6820330021184600F0A6FB4D
:104AC8000346FB7403E00123FB7400E000BFFB7C9A
:104AD800002B0BD1764BD3F8883023F440027B6847
:104AE8005B6E73491343C1F8883001E0FB7CBB74EB
:104AF8007B681B6803F48053002B41D07B689B6E56
:104B0800B3F1407F2AD0B3F1407F24D8B3F1007FBE
:104B180008D0B3F1007F1ED8002B0AD0B3F1807FF4
:104B280010D018E0624BDB68614A43F48033D360ED
:104B380015E07B6804330021184600F073FA034639
:104B4800FB740CE07B6820330021184600F05EFB04
:104B58000346FB7403E00123FB7400E000BFFB7C09
:104B6800002B0BD1524BD3F8883023F040727B686E
:104B78009B6E4F491343C1F8883001E0FB7CBB743E
:104B88007B681B6803F40033002B00F0A08000232F
:104B98007B74474B9B6D03F08053002B01D101239D
:104BA80000E00023002B0DD0414B9B6D404A43F0A1
:104BB800805393653E4B9B6D03F08053BB60BB688D
:104BC80001237B743B4B1B683A4A43F480731360A0
:104BD800FDF748FAF86009E0FDF744FA0246FB6879
:104BE800D31A022B02D90323FB7405E0314B1B684F
:104BF80003F48073002BEFD0FB7C002B5CD12C4B93
:104C0800D3F8903003F440737B617B69002B1FD08D
:104C18007B68D3F884307A699A4219D0244BD3F848
:104C2800903023F440737B61214BD3F89030204AB5
:104C380043F48033C2F890301D4BD3F890301C4AAF
:104C480023F48033C2F89030194A7B69C2F8903057
:104C58007B6903F00103002B16D0FDF703FAF86017
:104C68000BE0FDF7FFF90246FB68D31A41F28832E0
:104C7800934202D90323FB7406E00D4BD3F890301E
:104C880003F00203002BECD0FB7C002B0CD1084B6B
:104C9800D3F8903023F440727B68D3F88430044909
:104CA8001343C1F8903009E0FB7CBB7406E000BFF9
:104CB8000010024000700040FB7CBB747B7C012B21
:104CC80005D19E4B9B6D9D4A23F0805393657B686D
:104CD8001B6803F00103002B0AD0984BD3F88830E7
:104CE80023F003027B689B6B94491343C1F8883017
:104CF8007B681B6803F00203002B0AD08F4BD3F8A4
:104D0800883023F00C027B68DB6B8C491343C1F8B5
:104D180088307B681B6803F00403002B0AD0874B9C
:104D2800D3F8883023F030027B681B6C8349134327
:104D3800C1F888307B681B6803F00803002B0AD091
:104D48007E4BD3F8883023F0C0027B685B6C7B49CC
:104D58001343C1F888307B681B6803F01003002BED
:104D68000AD0764BD3F8883023F440727B689B6C6A
:104D780072491343C1F888307B681B6803F020032D
:104D8800002B0AD06D4BD3F8883023F440627B683F
:104D9800DB6C6A491343C1F888307B681B6803F4ED
:104DA8000073002B0AD0654BD3F8883023F44022D7
:104DB8007B68DB6D61491343C1F888307B681B68E9
:104DC80003F48063002B0AD05C4BD3F8883023F4BB
:104DD80040127B681B6E59491343C1F888307B68C1
:104DE8001B6803F04003002B0AD0544BD3F88830DB
:104DF80023F440527B681B6D50491343C1F8883037
:104E08007B681B6803F08003002B0AD04B4BD3F858
:104E1800883023F440427B685B6D48491343C1F8EE
:104E280088307B681B6803F48073002B0AD0434BDF
:104E3800D3F8883023F440327B689B6D3F49134395
:104E4800C1F888307B681B6803F40053002B28D016
:104E58003A4BD3F8883023F040627B68DB6E3749E1
:104E68001343C1F888307B68DB6EB3F1006F06D15D
:104E7800324BDB68314A43F48013D36011E07B681E
:104E8800DB6EB3F1806F0CD17B68043301211846C7
:104E980000F0C8F80346FB74FB7C002B01D0FB7CB8
:104EA800BB747B681B6803F40023002B28D0234BBA
:104EB800D3F8883023F040627B681B6F1F49134387
:104EC800C1F888307B681B6FB3F1006F06D11B4BAC
:104ED800DB681A4A43F48013D36011E07B681B6FC8
:104EE800B3F1806F0CD17B6804330121184600F0C0
:104EF80099F80346FB74FB7C002B01D0FB7CBB7448
:104F08007B681B6803F48023002B2BD00B4BD3F852
:104F1800883023F040627B685B6F08491343C1F80F
:104F280088307B685B6FB3F1006F09D1034BDB6896
:104F3800024A43F48013D36014E000BF001002401B
:104F48007B685B6FB3F1806F0CD17B680433012100
:104F5800184600F067F80346FB74FB7C002B01D071
:104F6800FB7CBB747B681B6803F48043002B2FD049
:104F78002B4BD3F8883023F040527B689B6F28492D
:104F88001343C1F888307B689B6FB3F1805F0DD104
:104F98007B6804330221184600F044F80346FB748A
:104FA800FB7C002B14D0FB7CBB7411E07B689B6FEF
:104FB800B3F1005F0CD17B6820330221184600F062
:104FC80025F90346FB74FB7C002B01D0FB7CBB74EA
:104FD8007B681B6803F40043002B0AD0104BD3F8FE
:104FE800883023F080427B68DB6F0D491343C1F89A
:104FF80088307B681B6803F48033002B0BD0084B88
:10500800D3F8883023F000427B68D3F88030044915
:105018001343C1F88830BB7C18461837BD4680BD9D
:105028000010024080B584B000AF7860396000237A
:10503800FB73754BDB6803F00303002B18D0724B2E
:10504800DB6803F003027B681B689A420DD17B681A
:105058001B68002B09D06C4BDB681B0903F00703A6
:105068005A1C7B685B689A4247D00123FB7344E073
:105078007B681B68032B18D0032B25D8012B02D083
:10508800022B09D020E0604B1B6803F00203002BC1
:105098001DD10123FB731AE05B4B1B6803F480638B
:1050A800002B16D10123FB7313E0574B1B6803F445
:1050B8000033002B0FD1544B1B6803F48023002BC3
:1050C80009D10123FB7306E00123FB7304E000BF51
:1050D80002E000BF00E000BFFB7B002B0DD14A4B74
:1050E800DB6823F073027B6819687B685B68013BA7
:1050F8001B010B4344491343CB60FB7B002B7DD141
:10510800414B1B68404A23F080631360FCF7AAFFF9
:10511800B86009E0FCF7A6FF0246BB68D31A022B69
:1051280002D90323FB7305E0374B1B6803F00063C8
:10513800002BEFD1FB7B002B60D13B68002B11D1FA
:10514800314B1B6923F41F3323F440737A68926848
:1051580011027A68D268120952040A432A49134391
:105168000B6127E03B68012B12D1274B1B6923F405
:10517800C00323F4FE437A68926811027A681269C0
:105188005208013A52050A431F4913430B6111E0C3
:105198001D4B1B6923F0C06323F4FE437A689268B1
:1051A80011027A6852695208013A52060A431649AE
:1051B80013430B61144B1B68134A43F0806313605D
:1051C800FCF750FFB86009E0FCF74CFF0246BB68EB
:1051D800D31A022B02D90323FB7305E00A4B1B6881
:1051E80003F00063002BEFD0FB7B002B06D1064BAE
:1051F8001A697B689B69044913430B61FB7B18465A
:105208001037BD4680BD00BF0010024080B584B095
:1052180000AF786039600023FB736A4BDB6803F0EA
:105228000303002B18D0674BDB6803F003027B688D
:105238001B689A420DD17B681B68002B09D0614B13
:10524800DB681B0903F007035A1C7B685B689A42FA
:1052580047D00123FB7344E07B681B68032B18D0FD
:10526800032B25D8012B02D0022B09D020E0554B67
:105278001B6803F00203002B1DD10123FB731AE006
:10528800504B1B6803F48063002B16D10123FB737A
:1052980013E04C4B1B6803F40033002B0FD1494B30
:1052A8001B6803F48023002B09D10123FB7306E05C
:1052B8000123FB7304E000BF02E000BF00E000BF71
:1052C800FB7B002B0DD13F4BDB6823F073027B681F
:1052D80019687B685B68013B1B010B433949134321
:1052E800CB60FB7B002B67D1364B1B68354A23F01C
:1052F80080531360FCF7B6FEB86009E0FCF7B2FE15
:105308000246BB68D31A022B02D90323FB7305E0BC
:105318002C4B1B6803F00053002BEFD1FB7B002BB9
:105328004AD13B68002B11D1264B5B6923F41F330C
:1053380023F440737A68926811027A68D268120975
:1053480052040A431F4913434B6111E01D4B5B692B
:1053580023F0C06323F4FE437A68926811027A68E6
:1053680012695208013A52060A43164913434B611F
:10537800144B1B68134A43F080531360FCF772FE0A
:10538800B86009E0FCF76EFE0246BB68D31A022B30
:1053980002D90323FB7305E00A4B1B6803F0005393
:1053A800002BEFD0FB7B002B06D1064B5A697B689C
:1053B8005B69044913434B61FB7B18461037BD46B4
:1053C80080BD00BF0010024080B582B000AF786099
:1053D8007B68002B01D1012349E07B6893F83D30BD
:1053E800DBB2002B06D17B68002283F83C2078686A
:1053F800FCF7E6FC7B68022283F83D207B681A688C
:105408007B6804331946104600F036FD7B6801229C
:1054180083F848207B68012283F83E207B680122BC
:1054280083F83F207B68012283F840207B680122B3
:1054380083F841207B68012283F842207B6801229F
:1054480083F843207B68012283F844207B6801228B
:1054580083F845207B68012283F846207B68012277
:1054680083F847207B68012283F83D2000231846F3
:105478000837BD4680BD000080B485B000AF7860B5
:105488007B6893F83D30DBB2012B01D001234FE05C
:105498007B68022283F83D207B681B68DA687B689A
:1054A8001B6842F00102DA607B681B68234A93425A
:1054B8001DD07B681B68B3F1804F18D07B681B68D0
:1054C8001F4A934213D07B681B681E4A93420ED032
:1054D8007B681B681C4A934209D07B681B681B4A7F
:1054E800934204D07B681B68194A934215D17B68A4
:1054F8001B689A68174B1340FB60FB68062B15D096
:10550800FB68B3F5803F11D07B681B681A687B681D
:105518001B6842F001021A6008E07B681B681A6881
:105528007B681B6842F001021A6000E000BF00239C
:1055380018461437BD465DF8047B7047002C0140BF
:105548000004004000080040000C00400034014006
:10555800004001400700010080B582B000AF7860CC
:105568007B68002B01D1012349E07B6893F83D302B
:10557800DBB2002B06D17B68002283F83C207868D8
:1055880000F041F87B68022283F83D207B681A68A6
:105598007B6804331946104600F06EFC7B680122D4
:1055A80083F848207B68012283F83E207B6801222B
:1055B80083F83F207B68012283F840207B68012222
:1055C80083F841207B68012283F842207B6801220E
:1055D80083F843207B68012283F844207B680122FA
:1055E80083F845207B68012283F846207B680122E6
:1055F80083F847207B68012283F83D200023184662
:105608000837BD4680BD80B483B000AF786000BF66
:105618000C37BD465DF8047B7047000080B584B048
:1056280000AF786039603B68002B09D17B6893F83C
:105638003E30DBB2012B14BF01230023DBB23CE078
:105648003B68042B09D17B6893F83F30DBB2012B10
:1056580014BF01230023DBB22FE03B68082B09D1DC
:105668007B6893F84030DBB2012B14BF0123002381
:10567800DBB222E03B680C2B09D17B6893F8413000
:10568800DBB2012B14BF01230023DBB215E03B681A
:10569800102B09D17B6893F84230DBB2012B14BF81
:1056A80001230023DBB208E07B6893F84330DBB2C8
:1056B800012B14BF01230023DBB2002B01D00123EF
:1056C8009CE03B68002B04D17B68022283F83E20D3
:1056D80023E03B68042B04D17B68022283F83F2037
:1056E8001BE03B68082B04D17B68022283F840202A
:1056F80013E03B680C2B04D17B68022283F841201D
:105708000BE03B68102B04D17B68022283F842200F
:1057180003E07B68022283F843207B681B68012230
:105728003968184600F0B2FF7B681B68354A934217
:1057380013D07B681B68344A93420ED07B681B6881
:10574800324A934209D07B681B68314A934204D09D
:105758007B681B682F4A934201D1012300E0002394
:10576800002B07D07B681B685A6C7B681B6842F467
:1057780000425A647B681B68224A93421DD07B68AA
:105788001B68B3F1804F18D07B681B68224A93428C
:1057980013D07B681B68214A93420ED07B681B6834
:1057A8001F4A934209D07B681B68174A934204D06A
:1057B8007B681B68154A934215D17B681B689A68F9
:1057C800184B1340FB60FB68062B15D0FB68B3F53C
:1057D800803F11D07B681B681A687B681B6842F0A1
:1057E80001021A6008E07B681B681A687B681B68FE
:1057F80042F001021A6000E000BF0023184610378B
:10580800BD4680BD002C01400034014000400140ED
:1058180000440140004801400004004000080040E6
:10582800000C00400700010080B582B000AF78602E
:105838007B681B681B6903F00203022B22D17B687B
:105848001B68DB6803F00203022B1BD17B681B6813
:105858006FF002021A617B6801221A777B681B6865
:105868009B6903F00303002B03D0786800F0E6FA85
:1058780005E0786800F0D8FA786800F0E9FA7B6803
:1058880000221A777B681B681B6903F00403042B4A
:1058980022D17B681B68DB6803F00403042B1BD14F
:1058A8007B681B686FF004021A617B6802221A7712
:1058B8007B681B689B6903F44073002B03D07868EE
:1058C80000F0BCFA05E0786800F0AEFA786800F0FD
:1058D800BFFA7B6800221A777B681B681B6903F094
:1058E8000803082B22D17B681B68DB6803F00803D8
:1058F800082B1BD17B681B686FF008021A617B6854
:1059080004221A777B681B68DB6903F00303002B0A
:1059180003D0786800F092FA05E0786800F084FA1D
:10592800786800F095FA7B6800221A777B681B6814
:105938001B6903F01003102B22D17B681B68DB68FE
:1059480003F01003102B1BD17B681B686FF010024B
:105958001A617B6808221A777B681B68DB6903F485
:105968004073002B03D0786800F068FA05E0786887
:1059780000F05AFA786800F06BFA7B6800221A7710
:105988007B681B681B6903F00103012B0ED17B6840
:105998001B68DB6803F00103012B07D17B681B68D8
:1059A8006FF001021A61786800F034FA7B681B68AE
:1059B8001B6903F08003802B0ED17B681B68DB68B2
:1059C80003F08003802B07D17B681B686FF080028F
:1059D8001A61786800F090FF7B681B681B6903F404
:1059E8008073B3F5807F0ED17B681B68DB6803F09A
:1059F8008003802B07D17B681B686FF480721A6163
:105A0800786800F083FF7B681B681B6903F040031C
:105A1800402B0ED17B681B68DB6803F04003402BEA
:105A280007D17B681B686FF040021A61786800F044
:105A380019FA7B681B681B6903F02003202B0ED121
:105A48007B681B68DB6803F02003202B07D17B6889
:105A58001B686FF020021A61786800F043FF00BFEE
:105A68000837BD4680BD000080B584B000AFF8603F
:105A7800B9607A60FB6893F83C30012B01D10223AE
:105A8800FDE0FB68012283F83C207B68142B00F2C0
:105A9800F08001A252F823F0F55A00087B5C000858
:105AA8007B5C00087B5C0008355B00087B5C0008B9
:105AB8007B5C00087B5C0008775B00087B5C000867
:105AC8007B5C00087B5C0008B75B00087B5C000817
